:100000000C942A000C9434000C9434000C943400AA
:100010000C9434000C9434000C9434000C94340090
:100020000C9434000C9434000C9434000C94340080
:100030000C9434000C9434000C9434000C94340070
:100040000C9434000C9434000C9434000C94340060
:100050000C94340011241FBECFE5D8E0DEBFCDBF25
:100060000E9436000C944A000C9400008FEF87BB6E
:1000700014BA14BA21E092E083B38F7D41F0BD98A9
:1000800080B38F7D11F028BBF7CF18BAF5CFBD9A9A
:0800900098BBF2CFF894FFCFFA
:00000001FF
